{"abi":[{"type":"function","name":"createERC721","inputs":[{"name":"name","type":"string","internalType":"string"},{"name":"symbol","type":"string","internalType":"string"}],"outputs":[],"stateMutability":"nonpayable"},{"type":"function","name":"createToken","inputs":[{"name":"name","type":"string","internalType":"string"},{"name":"symbol","type":"string","internalType":"string"},{"name":"initialSupply","type":"uint256","internalType":"uint256"}],"outputs":[],"stateMutability":"nonpayable"},{"type":"function","name":"erc20TokenCount","inputs":[],"outputs":[{"name":"","type":"uint256","internalType":"uint256"}],"stateMutability":"view"},{"type":"function","name":"erc721TokenCount","inputs":[],"outputs":[{"name":"","type":"uint256","internalType":"uint256"}],"stateMutability":"view"},{"type":"function","name":"getERC721TokensByUser","inputs":[{"name":"user","type":"address","internalType":"address"}],"outputs":[{"name":"","type":"tuple[]","internalType":"struct ERC20Factory.ERC721TokenDetails[]","components":[{"name":"name","type":"string","internalType":"string"},{"name":"symbol","type":"string","internalType":"string"},{"name":"tokenAddress","type":"address","internalType":"address"}]}],"stateMutability":"view"},{"type":"function","name":"getTokensByUser","inputs":[{"name":"user","type":"address","internalType":"address"}],"outputs":[{"name":"","type":"tuple[]","internalType":"struct ERC20Factory.TokenDetails[]","components":[{"name":"name","type":"string","internalType":"string"},{"name":"symbol","type":"string","internalType":"string"},{"name":"tokenAddress","type":"address","internalType":"address"}]}],"stateMutability":"view"},{"type":"function","name":"userERC721Tokens","inputs":[{"name":"","type":"address","internalType":"address"},{"name":"","type":"uint256","internalType":"uint256"}],"outputs":[{"name":"name","type":"string","internalType":"string"},{"name":"symbol","type":"string","internalType":"string"},{"name":"tokenAddress","type":"address","internalType":"address"}],"stateMutability":"view"},{"type":"function","name":"userTokens","inputs":[{"name":"","type":"address","internalType":"address"},{"name":"","type":"uint256","internalType":"uint256"}],"outputs":[{"name":"name","type":"string","internalType":"string"},{"name":"symbol","type":"string","internalType":"string"},{"name":"tokenAddress","type":"address","internalType":"address"}],"stateMutability":"view"},{"type":"event","name":"ERC721TokenCreated","inputs":[{"name":"creator","type":"address","indexed":true,"internalType":"address"},{"name":"name","type":"string","indexed":false,"internalType":"string"},{"name":"symbol","type":"string","indexed":false,"internalType":"string"},{"name":"tokenAddress","type":"address","indexed":false,"internalType":"address"}],"anonymous":false},{"type":"event","name":"TokenCreated","inputs":[{"name":"tokenAddress","type":"address","indexed":false,"internalType":"address"},{"name":"name","type":"string","indexed":false,"internalType":"string"},{"name":"symbol","type":"string","indexed":false,"internalType":"string"},{"name":"initialSupply","type":"uint256","indexed":false,"internalType":"uint256"}],"anonymous":false}],"bytecode":{"object":"0x6080604052348015600e575f5ffd5b50615fc08061001c5f395ff3fe608060405234801561000f575f5ffd5b5060043610610086575f3560e01c806380370075116100595780638037007514610124578063bc48bc2214610154578063f67ea2ac14610172578063f9f411d81461019057610086565b806328e0d81d1461008a578063586fd0c5146100bc5780635b060530146100d85780636fe520d0146100f4575b5f5ffd5b6100a4600480360381019061009f9190610cb7565b6101c2565b6040516100b393929190610d74565b60405180910390f35b6100d660048036038101906100d19190610ee3565b61032d565b005b6100f260048036038101906100ed9190610f59565b6104d7565b005b61010e60048036038101906101099190610fe1565b610670565b60405161011b9190611172565b60405180910390f35b61013e60048036038101906101399190610fe1565b61087d565b60405161014b91906112a1565b60405180910390f35b61015c610a89565b60405161016991906112d0565b60405180910390f35b61017a610a8f565b60405161018791906112d0565b60405180910390f35b6101aa60048036038101906101a59190610cb7565b610a95565b6040516101b993929190610d74565b60405180910390f35b6001602052815f5260405f2081815481106101db575f80fd5b905f5260205f2090600302015f9150915050805f0180546101fb90611316565b80601f016020809104026020016040519081016040528092919081815260200182805461022790611316565b80156102725780601f1061024957610100808354040283529160200191610272565b820191905f5260205f20905b81548152906001019060200180831161025557829003601f168201915b50505050509080600101805461028790611316565b80601f01602080910402602001604051908101604052809291908181526020018280546102b390611316565b80156102fe5780601f106102d5576101008083540402835291602001916102fe565b820191905f5260205f20905b8154815290600101906020018083116102e157829003601f168201915b505050505090806002015f9054906101000a900473ffffffffffffffffffffffffffffffffffffffff16905083565b5f828260405161033c90610bff565b610347929190611346565b604051809103905ff080158015610360573d5f5f3e3d5ffd5b50905060015f3373ffffffffffffffffffffffffffffffffffffffff1673ffffffffffffffffffffffffffffffffffffffff1681526020019081526020015f2060405180606001604052808581526020018481526020018373ffffffffffffffffffffffffffffffffffffffff16815250908060018154018082558091505060019003905f5260205f2090600302015f909190919091505f820151815f01908161040a919061151b565b506020820151816001019081610420919061151b565b506040820151816002015f6101000a81548173ffffffffffffffffffffffffffffffffffffffff021916908373ffffffffffffffffffffffffffffffffffffffff160217905550505060035f81548092919061047b90611617565b91905055503373ffffffffffffffffffffffffffffffffffffffff167fcf7eed97d1a2a28d528d893489545cf3af4bbe7aa2e28ad28b676b199d5a883a8484846040516104ca93929190610d74565b60405180910390a2505050565b5f838383336040516104e890610c0c565b6104f5949392919061165e565b604051809103905ff08015801561050e573d5f5f3e3d5ffd5b5090505f5f3373ffffffffffffffffffffffffffffffffffffffff1673ffffffffffffffffffffffffffffffffffffffff1681526020019081526020015f2060405180606001604052808681526020018581526020018373ffffffffffffffffffffffffffffffffffffffff16815250908060018154018082558091505060019003905f5260205f2090600302015f909190919091505f820151815f0190816105b7919061151b565b5060208201518160010190816105cd919061151b565b506040820151816002015f6101000a81548173ffffffffffffffffffffffffffffffffffffffff021916908373ffffffffffffffffffffffffffffffffffffffff160217905550505060025f81548092919061062890611617565b91905055507f75d1eb2d61d7e210835bc16e78ac4d0e4f905c108a81852a6b68c4d46b4f40f38185858560405161066294939291906116af565b60405180910390a150505050565b606060015f8373ffffffffffffffffffffffffffffffffffffffff1673ffffffffffffffffffffffffffffffffffffffff1681526020019081526020015f20805480602002602001604051908101604052809291908181526020015f905b82821015610872578382905f5260205f2090600302016040518060600160405290815f820180546106fe90611316565b80601f016020809104026020016040519081016040528092919081815260200182805461072a90611316565b80156107755780601f1061074c57610100808354040283529160200191610775565b820191905f5260205f20905b81548152906001019060200180831161075857829003601f168201915b5050505050815260200160018201805461078e90611316565b80601f01602080910402602001604051908101604052809291908181526020018280546107ba90611316565b80156108055780601f106107dc57610100808354040283529160200191610805565b820191905f5260205f20905b8154815290600101906020018083116107e857829003601f168201915b50505050508152602001600282015f9054906101000a900473ffffffffffffffffffffffffffffffffffffffff1673ffffffffffffffffffffffffffffffffffffffff1673ffffffffffffffffffffffffffffffffffffffff1681525050815260200190600101906106ce565b505050509050919050565b60605f5f8373ffffffffffffffffffffffffffffffffffffffff1673ffffffffffffffffffffffffffffffffffffffff1681526020019081526020015f20805480602002602001604051908101604052809291908181526020015f905b82821015610a7e578382905f5260205f2090600302016040518060600160405290815f8201805461090a90611316565b80601f016020809104026020016040519081016040528092919081815260200182805461093690611316565b80156109815780601f1061095857610100808354040283529160200191610981565b820191905f5260205f20905b81548152906001019060200180831161096457829003601f168201915b5050505050815260200160018201805461099a90611316565b80601f01602080910402602001604051908101604052809291908181526020018280546109c690611316565b8015610a115780601f106109e857610100808354040283529160200191610a11565b820191905f5260205f20905b8154815290600101906020018083116109f457829003601f168201915b50505050508152602001600282015f9054906101000a900473ffffffffffffffffffffffffffffffffffffffff1673ffffffffffffffffffffffffffffffffffffffff1673ffffffffffffffffffffffffffffffffffffffff1681525050815260200190600101906108da565b505050509050919050565b60025481565b60035481565b5f602052815f5260405f208181548110610aad575f80fd5b905f5260205f2090600302015f9150915050805f018054610acd90611316565b80601f0160208091040260200160405190810160405280929190818152602001828054610af990611316565b8015610b445780601f10610b1b57610100808354040283529160200191610b44565b820191905f5260205f20905b815481529060010190602001808311610b2757829003601f168201915b505050505090806001018054610b5990611316565b80601f0160208091040260200160405190810160405280929190818152602001828054610b8590611316565b8015610bd05780601f10610ba757610100808354040283529160200191610bd0565b820191905f5260205f20905b815481529060010190602001808311610bb357829003601f168201915b505050505090806002015f9054906101000a900473ffffffffffffffffffffffffffffffffffffffff16905083565b612e998061170183390190565b6119f18061459a83390190565b5f604051905090565b5f5ffd5b5f5ffd5b5f73ffffffffffffffffffffffffffffffffffffffff82169050919050565b5f610c5382610c2a565b9050919050565b610c6381610c49565b8114610c6d575f5ffd5b50565b5f81359050610c7e81610c5a565b92915050565b5f819050919050565b610c9681610c84565b8114610ca0575f5ffd5b50565b5f81359050610cb181610c8d565b92915050565b5f5f60408385031215610ccd57610ccc610c22565b5b5f610cda85828601610c70565b9250506020610ceb85828601610ca3565b9150509250929050565b5f81519050919050565b5f82825260208201905092915050565b8281835e5f83830152505050565b5f601f19601f8301169050919050565b5f610d3782610cf5565b610d418185610cff565b9350610d51818560208601610d0f565b610d5a81610d1d565b840191505092915050565b610d6e81610c49565b82525050565b5f6060820190508181035f830152610d8c8186610d2d565b90508181036020830152610da08185610d2d565b9050610daf6040830184610d65565b949350505050565b5f5ffd5b5f5ffd5b7f4e487b71000000000000000000000000000000000000000000000000000000005f52604160045260245ffd5b610df582610d1d565b810181811067ffffffffffffffff82111715610e1457610e13610dbf565b5b80604052505050565b5f610e26610c19565b9050610e328282610dec565b919050565b5f67ffffffffffffffff821115610e5157610e50610dbf565b5b610e5a82610d1d565b9050602081019050919050565b828183375f83830152505050565b5f610e87610e8284610e37565b610e1d565b905082815260208101848484011115610ea357610ea2610dbb565b5b610eae848285610e67565b509392505050565b5f82601f830112610eca57610ec9610db7565b5b8135610eda848260208601610e75565b91505092915050565b5f5f60408385031215610ef957610ef8610c22565b5b5f83013567ffffffffffffffff811115610f1657610f15610c26565b5b610f2285828601610eb6565b925050602083013567ffffffffffffffff811115610f4357610f42610c26565b5b610f4f85828601610eb6565b9150509250929050565b5f5f5f60608486031215610f7057610f6f610c22565b5b5f84013567ffffffffffffffff811115610f8d57610f8c610c26565b5b610f9986828701610eb6565b935050602084013567ffffffffffffffff811115610fba57610fb9610c26565b5b610fc686828701610eb6565b9250506040610fd786828701610ca3565b9150509250925092565b5f60208284031215610ff657610ff5610c22565b5b5f61100384828501610c70565b91505092915050565b5f81519050919050565b5f82825260208201905092915050565b5f819050602082019050919050565b5f82825260208201905092915050565b5f61104f82610cf5565b6110598185611035565b9350611069818560208601610d0f565b61107281610d1d565b840191505092915050565b61108681610c49565b82525050565b5f606083015f8301518482035f8601526110a68282611045565b915050602083015184820360208601526110c08282611045565b91505060408301516110d5604086018261107d565b508091505092915050565b5f6110eb838361108c565b905092915050565b5f602082019050919050565b5f6111098261100c565b6111138185611016565b93508360208202850161112585611026565b805f5b85811015611160578484038952815161114185826110e0565b945061114c836110f3565b925060208a01995050600181019050611128565b50829750879550505050505092915050565b5f6020820190508181035f83015261118a81846110ff565b905092915050565b5f81519050919050565b5f82825260208201905092915050565b5f819050602082019050919050565b5f606083015f8301518482035f8601526111d58282611045565b915050602083015184820360208601526111ef8282611045565b9150506040830151611204604086018261107d565b508091505092915050565b5f61121a83836111bb565b905092915050565b5f602082019050919050565b5f61123882611192565b611242818561119c565b935083602082028501611254856111ac565b805f5b8581101561128f5784840389528151611270858261120f565b945061127b83611222565b925060208a01995050600181019050611257565b50829750879550505050505092915050565b5f6020820190508181035f8301526112b9818461122e565b905092915050565b6112ca81610c84565b82525050565b5f6020820190506112e35f8301846112c1565b92915050565b7f4e487b71000000000000000000000000000000000000000000000000000000005f52602260045260245ffd5b5f600282049050600182168061132d57607f821691505b6020821081036113405761133f6112e9565b5b50919050565b5f6040820190508181035f83015261135e8185610d2d565b905081810360208301526113728184610d2d565b90509392505050565b5f819050815f5260205f209050919050565b5f6020601f8301049050919050565b5f82821b905092915050565b5f600883026113d77fffffffffffffffffffffffffffffffffffffffffffffffffffffffffffffffff8261139c565b6113e1868361139c565b95508019841693508086168417925050509392505050565b5f819050919050565b5f61141c61141761141284610c84565b6113f9565b610c84565b9050919050565b5f819050919050565b61143583611402565b61144961144182611423565b8484546113a8565b825550505050565b5f5f905090565b611460611451565b61146b81848461142c565b505050565b5b8181101561148e576114835f82611458565b600181019050611471565b5050565b601f8211156114d3576114a48161137b565b6114ad8461138d565b810160208510156114bc578190505b6114d06114c88561138d565b830182611470565b50505b505050565b5f82821c905092915050565b5f6114f35f19846008026114d8565b1980831691505092915050565b5f61150b83836114e4565b9150826002028217905092915050565b61152482610cf5565b67ffffffffffffffff81111561153d5761153c610dbf565b5b6115478254611316565b611552828285611492565b5f60209050601f831160018114611583575f8415611571578287015190505b61157b8582611500565b8655506115e2565b601f1984166115918661137b565b5f5b828110156115b857848901518255600182019150602085019450602081019050611593565b868310156115d557848901516115d1601f8916826114e4565b8355505b6001600288020188555050505b505050505050565b7f4e487b71000000000000000000000000000000000000000000000000000000005f52601160045260245ffd5b5f61162182610c84565b91507fffffffffffffffffffffffffffffffffffffffffffffffffffffffffffffffff8203611653576116526115ea565b5b600182019050919050565b5f6080820190508181035f8301526116768187610d2d565b9050818103602083015261168a8186610d2d565b905061169960408301856112c1565b6116a66060830184610d65565b95945050505050565b5f6080820190506116c25f830187610d65565b81810360208301526116d48186610d2d565b905081810360408301526116e88185610d2d565b90506116f760608301846112c1565b9594505050505056fe608060405234801561000f575f5ffd5b50604051612e99380380612e99833981810160405281019061003191906101a8565b8181815f9081610041919061042e565b508060019081610051919061042e565b50505050506104fd565b5f604051905090565b5f5ffd5b5f5ffd5b5f5ffd5b5f5ffd5b5f601f19601f8301169050919050565b7f4e487b71000000000000000000000000000000000000000000000000000000005f52604160045260245ffd5b6100ba82610074565b810181811067ffffffffffffffff821117156100d9576100d8610084565b5b80604052505050565b5f6100eb61005b565b90506100f782826100b1565b919050565b5f67ffffffffffffffff82111561011657610115610084565b5b61011f82610074565b9050602081019050919050565b8281835e5f83830152505050565b5f61014c610147846100fc565b6100e2565b90508281526020810184848401111561016857610167610070565b5b61017384828561012c565b509392505050565b5f82601f83011261018f5761018e61006c565b5b815161019f84826020860161013a565b91505092915050565b5f5f604083850312156101be576101bd610064565b5b5f83015167ffffffffffffffff8111156101db576101da610068565b5b6101e78582860161017b565b925050602083015167ffffffffffffffff81111561020857610207610068565b5b6102148582860161017b565b9150509250929050565b5f81519050919050565b7f4e487b71000000000000000000000000000000000000000000000000000000005f52602260045260245ffd5b5f600282049050600182168061026c57607f821691505b60208210810361027f5761027e610228565b5b50919050565b5f819050815f5260205f209050919050565b5f6020601f8301049050919050565b5f82821b905092915050565b5f600883026102e17fffffffffffffffffffffffffffffffffffffffffffffffffffffffffffffffff826102a6565b6102eb86836102a6565b95508019841693508086168417925050509392505050565b5f819050919050565b5f819050919050565b5f61032f61032a61032584610303565b61030c565b610303565b9050919050565b5f819050919050565b61034883610315565b61035c61035482610336565b8484546102b2565b825550505050565b5f5f905090565b610373610364565b61037e81848461033f565b505050565b5b818110156103a1576103965f8261036b565b600181019050610384565b5050565b601f8211156103e6576103b781610285565b6103c084610297565b810160208510156103cf578190505b6103e36103db85610297565b830182610383565b50505b505050565b5f82821c905092915050565b5f6104065f19846008026103eb565b1980831691505092915050565b5f61041e83836103f7565b9150826002028217905092915050565b6104378261021e565b67ffffffffffffffff8111156104505761044f610084565b5b61045a8254610255565b6104658282856103a5565b5f60209050601f831160018114610496575f8415610484578287015190505b61048e8582610413565b8655506104f5565b601f1984166104a486610285565b5f5b828110156104cb578489015182556001820191506020850194506020810190506104a6565b868310156104e857848901516104e4601f8916826103f7565b8355505b6001600288020188555050505b505050505050565b61298f8061050a5f395ff3fe608060405234801561000f575f5ffd5b50600436106100f3575f3560e01c80636352211e11610095578063b88d4fde11610064578063b88d4fde1461027f578063c87b56dd1461029b578063d0def521146102cb578063e985e9c5146102fb576100f3565b80636352211e146101e557806370a082311461021557806395d89b4114610245578063a22cb46514610263576100f3565b8063095ea7b3116100d1578063095ea7b31461017557806323b872dd1461019157806342842e0e146101ad57806342966c68146101c9576100f3565b806301ffc9a7146100f757806306fdde0314610127578063081812fc14610145575b5f5ffd5b610111600480360381019061010c9190611697565b61032b565b60405161011e91906116dc565b60405180910390f35b61012f610419565b60405161013c9190611765565b60405180910390f35b61015f600480360381019061015a91906117b8565b6104a8565b60405161016c9190611822565b60405180910390f35b61018f600480360381019061018a9190611865565b610529565b005b6101ab60048036038101906101a691906118a3565b610631565b005b6101c760048036038101906101c291906118a3565b61068a565b005b6101e360048036038101906101de91906117b8565b6106a9565b005b6101ff60048036038101906101fa91906117b8565b6106fe565b60405161020c9190611822565b60405180910390f35b61022f600480360381019061022a91906118f3565b6107aa565b60405161023c919061192d565b60405180910390f35b61024d61085e565b60405161025a9190611765565b60405180910390f35b61027d60048036038101906102789190611970565b6108ee565b005b61029960048036038101906102949190611ada565b610a54565b005b6102b560048036038101906102b091906117b8565b610aaf565b6040516102c29190611765565b60405180910390f35b6102e560048036038101906102e09190611bf8565b610b9d565b6040516102f2919061192d565b60405180910390f35b61031560048036038101906103109190611c52565b610bd9565b60405161032291906116dc565b60405180910390f35b5f6301ffc9a760e01b7bffffffffffffffffffffffffffffffffffffffffffffffffffffffff1916827bffffffffffffffffffffffffffffffffffffffffffffffffffffffff191614806103c357506380ac58cd60e01b7bffffffffffffffffffffffffffffffffffffffffffffffffffffffff1916827bffffffffffffffffffffffffffffffffffffffffffffffffffffffff1916145b806104125750635b5e139f60e01b7bffffffffffffffffffffffffffffffffffffffffffffffffffffffff1916827bffffffffffffffffffffffffffffffffffffffffffffffffffffffff1916145b9050919050565b60605f805461042790611cbd565b80601f016020809104026020016040519081016040528092919081815260200182805461045390611cbd565b801561049e5780601f106104755761010080835404028352916020019161049e565b820191905f5260205f20905b81548152906001019060200180831161048157829003601f168201915b5050505050905090565b5f6104b282610c67565b6104f1576040517f08c379a00000000000000000000000000000000000000000000000000000000081526004016104e890611d5d565b60405180910390fd5b60045f8381526020019081526020015f205f9054906101000a900473ffffffffffffffffffffffffffffffffffffffff169050919050565b5f610533826106fe565b90508073ffffffffffffffffffffffffffffffffffffffff168373ffffffffffffffffffffffffffffffffffffffff16036105a3576040517f08c379a000000000000000000000000000000000000000000000000000000000815260040161059a90611deb565b60405180910390fd5b8073ffffffffffffffffffffffffffffffffffffffff163373ffffffffffffffffffffffffffffffffffffffff1614806105e357506105e28133610bd9565b5b610622576040517f08c379a000000000000000000000000000000000000000000000000000000000815260040161061990611e79565b60405180910390fd5b61062c8383610ccf565b505050565b61063b3382610d85565b61067a576040517f08c379a000000000000000000000000000000000000000000000000000000000815260040161067190611f07565b60405180910390fd5b610685838383610e61565b505050565b6106a483838360405180602001604052805f815250610a54565b505050565b6106b33382610d85565b6106f2576040517f08c379a00000000000000000000000000000000000000000000000000000000081526004016106e990611f6f565b60405180910390fd5b6106fb816110a6565b50565b5f5f60025f8481526020019081526020015f205f9054906101000a900473ffffffffffffffffffffffffffffffffffffffff1690505f73ffffffffffffffffffffffffffffffffffffffff168173ffffffffffffffffffffffffffffffffffffffff16036107a1576040517f08c379a000000000000000000000000000000000000000000000000000000000815260040161079890611ffd565b60405180910390fd5b80915050919050565b5f5f73ffffffffffffffffffffffffffffffffffffffff168273ffffffffffffffffffffffffffffffffffffffff1603610819576040517f08c379a00000000000000000000000000000000000000000000000000000000081526004016108109061208b565b60405180910390fd5b60035f8373ffffffffffffffffffffffffffffffffffffffff1673ffffffffffffffffffffffffffffffffffffffff1681526020019081526020015f20549050919050565b60606001805461086d90611cbd565b80601f016020809104026020016040519081016040528092919081815260200182805461089990611cbd565b80156108e45780601f106108bb576101008083540402835291602001916108e4565b820191905f5260205f20905b8154815290600101906020018083116108c757829003601f168201915b5050505050905090565b3373ffffffffffffffffffffffffffffffffffffffff168273ffffffffffffffffffffffffffffffffffffffff160361095c576040517f08c379a0000000000000000000000000000000000000000000000000000000008152600401610953906120f3565b60405180910390fd5b8060055f3373ffffffffffffffffffffffffffffffffffffffff1673ffffffffffffffffffffffffffffffffffffffff1681526020019081526020015f205f8473ffffffffffffffffffffffffffffffffffffffff1673ffffffffffffffffffffffffffffffffffffffff1681526020019081526020015f205f6101000a81548160ff0219169083151502179055508173ffffffffffffffffffffffffffffffffffffffff163373ffffffffffffffffffffffffffffffffffffffff167f17307eab39ab6107e8899845ad3d59bd9653f200f220920489ca2b5937696c3183604051610a4891906116dc565b60405180910390a35050565b610a5e3383610d85565b610a9d576040517f08c379a0000000000000000000000000000000000000000000000000000000008152600401610a9490611f07565b60405180910390fd5b610aa9848484846111e3565b50505050565b6060610aba82610c67565b610af9576040517f08c379a0000000000000000000000000000000000000000000000000000000008152600401610af090612181565b60405180910390fd5b5f60065f8481526020019081526020015f208054610b1690611cbd565b80601f0160208091040260200160405190810160405280929190818152602001828054610b4290611cbd565b8015610b8d5780601f10610b6457610100808354040283529160200191610b8d565b820191905f5260205f20905b815481529060010190602001808311610b7057829003601f168201915b5050505050905080915050919050565b5f5f6007549050610bae848261123f565b610bb881846113f8565b60075f815480929190610bca906121cc565b91905055508091505092915050565b5f60055f8473ffffffffffffffffffffffffffffffffffffffff1673ffffffffffffffffffffffffffffffffffffffff1681526020019081526020015f205f8373ffffffffffffffffffffffffffffffffffffffff1673ffffffffffffffffffffffffffffffffffffffff1681526020019081526020015f205f9054906101000a900460ff16905092915050565b5f5f73ffffffffffffffffffffffffffffffffffffffff1660025f8481526020019081526020015f205f9054906101000a900473ffffffffffffffffffffffffffffffffffffffff1673ffffffffffffffffffffffffffffffffffffffff1614159050919050565b8160045f8381526020019081526020015f205f6101000a81548173ffffffffffffffffffffffffffffffffffffffff021916908373ffffffffffffffffffffffffffffffffffffffff160217905550808273ffffffffffffffffffffffffffffffffffffffff16610d3f836106fe565b73ffffffffffffffffffffffffffffffffffffffff167f8c5be1e5ebec7d5bd14f71427d1e84f3dd0314c0f7b2291e5b200ac8c7c3b92560405160405180910390a45050565b5f610d8f82610c67565b610dce576040517f08c379a0000000000000000000000000000000000000000000000000000000008152600401610dc590612283565b60405180910390fd5b5f610dd8836106fe565b90508073ffffffffffffffffffffffffffffffffffffffff168473ffffffffffffffffffffffffffffffffffffffff161480610e4757508373ffffffffffffffffffffffffffffffffffffffff16610e2f846104a8565b73ffffffffffffffffffffffffffffffffffffffff16145b80610e585750610e578185610bd9565b5b91505092915050565b8273ffffffffffffffffffffffffffffffffffffffff16610e81826106fe565b73ffffffffffffffffffffffffffffffffffffffff1614610ed7576040517f08c379a0000000000000000000000000000000000000000000000000000000008152600401610ece90612311565b60405180910390fd5b5f73ffffffffffffffffffffffffffffffffffffffff168273ffffffffffffffffffffffffffffffffffffffff1603610f45576040517f08c379a0000000000000000000000000000000000000000000000000000000008152600401610f3c9061239f565b60405180910390fd5b610f4f5f82610ccf565b600160035f8573ffffffffffffffffffffffffffffffffffffffff1673ffffffffffffffffffffffffffffffffffffffff1681526020019081526020015f205f828254610f9c91906123bd565b92505081905550600160035f8473ffffffffffffffffffffffffffffffffffffffff1673ffffffffffffffffffffffffffffffffffffffff1681526020019081526020015f205f828254610ff091906123f0565b925050819055508160025f8381526020019081526020015f205f6101000a81548173ffffffffffffffffffffffffffffffffffffffff021916908373ffffffffffffffffffffffffffffffffffffffff160217905550808273ffffffffffffffffffffffffffffffffffffffff168473ffffffffffffffffffffffffffffffffffffffff167fddf252ad1be2c89b69c2b068fc378daa952ba7f163c4a11628f55a4df523b3ef60405160405180910390a4505050565b5f6110b0826106fe565b90506110bc5f83610ccf565b5f60065f8481526020019081526020015f2080546110d990611cbd565b9050146110fd5760065f8381526020019081526020015f205f6110fc91906115d9565b5b600160035f8373ffffffffffffffffffffffffffffffffffffffff1673ffffffffffffffffffffffffffffffffffffffff1681526020019081526020015f205f82825461114a91906123bd565b9250508190555060025f8381526020019081526020015f205f6101000a81549073ffffffffffffffffffffffffffffffffffffffff0219169055815f73ffffffffffffffffffffffffffffffffffffffff168273ffffffffffffffffffffffffffffffffffffffff167fddf252ad1be2c89b69c2b068fc378daa952ba7f163c4a11628f55a4df523b3ef60405160405180910390a45050565b6111ee848484610e61565b6111fa84848484611463565b611239576040517f08c379a000000000000000000000000000000000000000000000000000000000815260040161123090612493565b60405180910390fd5b50505050565b5f73ffffffffffffffffffffffffffffffffffffffff168273ffffffffffffffffffffffffffffffffffffffff16036112ad576040517f08c379a00000000000000000000000000000000000000000000000000000000081526004016112a4906124fb565b60405180910390fd5b6112b681610c67565b156112f6576040517f08c379a00000000000000000000000000000000000000000000000000000000081526004016112ed90612563565b60405180910390fd5b600160035f8473ffffffffffffffffffffffffffffffffffffffff1673ffffffffffffffffffffffffffffffffffffffff1681526020019081526020015f205f82825461134391906123f0565b925050819055508160025f8381526020019081526020015f205f6101000a81548173ffffffffffffffffffffffffffffffffffffffff021916908373ffffffffffffffffffffffffffffffffffffffff160217905550808273ffffffffffffffffffffffffffffffffffffffff165f73ffffffffffffffffffffffffffffffffffffffff167fddf252ad1be2c89b69c2b068fc378daa952ba7f163c4a11628f55a4df523b3ef60405160405180910390a45050565b61140182610c67565b611440576040517f08c379a0000000000000000000000000000000000000000000000000000000008152600401611437906125f1565b60405180910390fd5b8060065f8481526020019081526020015f20908161145e91906127af565b505050565b5f61146d846115c8565b156115bb578373ffffffffffffffffffffffffffffffffffffffff1663150b7a02338786866040518563ffffffff1660e01b81526004016114b194939291906128d0565b6020604051808303815f875af19250505080156114ec57506040513d601f19601f820116820180604052508101906114e9919061292e565b60015b61156b573d805f811461151a576040519150601f19603f3d011682016040523d82523d5f602084013e61151f565b606091505b505f815103611563576040517f08c379a000000000000000000000000000000000000000000000000000000000815260040161155a90612493565b60405180910390fd5b805181602001fd5b63150b7a0260e01b7bffffffffffffffffffffffffffffffffffffffffffffffffffffffff1916817bffffffffffffffffffffffffffffffffffffffffffffffffffffffff1916149150506115c0565b600190505b949350505050565b5f5f823b90505f8111915050919050565b5080546115e590611cbd565b5f825580601f106115f65750611613565b601f0160209004905f5260205f20908101906116129190611616565b5b50565b5b8082111561162d575f815f905550600101611617565b5090565b5f604051905090565b5f5ffd5b5f5ffd5b5f7fffffffff0000000000000000000000000000000000000000000000000000000082169050919050565b61167681611642565b8114611680575f5ffd5b50565b5f813590506116918161166d565b92915050565b5f602082840312156116ac576116ab61163a565b5b5f6116b984828501611683565b91505092915050565b5f8115159050919050565b6116d6816116c2565b82525050565b5f6020820190506116ef5f8301846116cd565b92915050565b5f81519050919050565b5f82825260208201905092915050565b8281835e5f83830152505050565b5f601f19601f8301169050919050565b5f611737826116f5565b61174181856116ff565b935061175181856020860161170f565b61175a8161171d565b840191505092915050565b5f6020820190508181035f83015261177d818461172d565b905092915050565b5f819050919050565b61179781611785565b81146117a1575f5ffd5b50565b5f813590506117b28161178e565b92915050565b5f602082840312156117cd576117cc61163a565b5b5f6117da848285016117a4565b91505092915050565b5f73ffffffffffffffffffffffffffffffffffffffff82169050919050565b5f61180c826117e3565b9050919050565b61181c81611802565b82525050565b5f6020820190506118355f830184611813565b92915050565b61184481611802565b811461184e575f5ffd5b50565b5f8135905061185f8161183b565b92915050565b5f5f6040838503121561187b5761187a61163a565b5b5f61188885828601611851565b9250506020611899858286016117a4565b9150509250929050565b5f5f5f606084860312156118ba576118b961163a565b5b5f6118c786828701611851565b93505060206118d886828701611851565b92505060406118e9868287016117a4565b9150509250925092565b5f602082840312156119085761190761163a565b5b5f61191584828501611851565b91505092915050565b61192781611785565b82525050565b5f6020820190506119405f83018461191e565b92915050565b61194f816116c2565b8114611959575f5ffd5b50565b5f8135905061196a81611946565b92915050565b5f5f604083850312156119865761198561163a565b5b5f61199385828601611851565b92505060206119a48582860161195c565b9150509250929050565b5f5ffd5b5f5ffd5b7f4e487b71000000000000000000000000000000000000000000000000000000005f52604160045260245ffd5b6119ec8261171d565b810181811067ffffffffffffffff82111715611a0b57611a0a6119b6565b5b80604052505050565b5f611a1d611631565b9050611a2982826119e3565b919050565b5f67ffffffffffffffff821115611a4857611a476119b6565b5b611a518261171d565b9050602081019050919050565b828183375f83830152505050565b5f611a7e611a7984611a2e565b611a14565b905082815260208101848484011115611a9a57611a996119b2565b5b611aa5848285611a5e565b509392505050565b5f82601f830112611ac157611ac06119ae565b5b8135611ad1848260208601611a6c565b91505092915050565b5f5f5f5f60808587031215611af257611af161163a565b5b5f611aff87828801611851565b9450506020611b1087828801611851565b9350506040611b21878288016117a4565b925050606085013567ffffffffffffffff811115611b4257611b4161163e565b5b611b4e87828801611aad565b91505092959194509250565b5f67ffffffffffffffff821115611b7457611b736119b6565b5b611b7d8261171d565b9050602081019050919050565b5f611b9c611b9784611b5a565b611a14565b905082815260208101848484011115611bb857611bb76119b2565b5b611bc3848285611a5e565b509392505050565b5f82601f830112611bdf57611bde6119ae565b5b8135611bef848260208601611b8a565b91505092915050565b5f5f60408385031215611c0e57611c0d61163a565b5b5f611c1b85828601611851565b925050602083013567ffffffffffffffff811115611c3c57611c3b61163e565b5b611c4885828601611bcb565b9150509250929050565b5f5f60408385031215611c6857611c6761163a565b5b5f611c7585828601611851565b9250506020611c8685828601611851565b9150509250929050565b7f4e487b71000000000000000000000000000000000000000000000000000000005f52602260045260245ffd5b5f6002820490506001821680611cd457607f821691505b602082108103611ce757611ce6611c90565b5b50919050565b7f4552433732313a20617070726f76656420717565727920666f72206e6f6e65785f8201527f697374656e7420746f6b656e0000000000000000000000000000000000000000602082015250565b5f611d47602c836116ff565b9150611d5282611ced565b604082019050919050565b5f6020820190508181035f830152611d7481611d3b565b9050919050565b7f4552433732313a20617070726f76616c20746f2063757272656e74206f776e655f8201527f7200000000000000000000000000000000000000000000000000000000000000602082015250565b5f611dd56021836116ff565b9150611de082611d7b565b604082019050919050565b5f6020820190508181035f830152611e0281611dc9565b9050919050565b7f4552433732313a20617070726f76652063616c6c6572206973206e6f74206f775f8201527f6e6572206e6f7220617070726f76656420666f7220616c6c0000000000000000602082015250565b5f611e636038836116ff565b9150611e6e82611e09565b604082019050919050565b5f6020820190508181035f830152611e9081611e57565b9050919050565b7f4552433732313a207472616e736665722063616c6c6572206973206e6f74206f5f8201527f776e6572206e6f7220617070726f766564000000000000000000000000000000602082015250565b5f611ef16031836116ff565b9150611efc82611e97565b604082019050919050565b5f6020820190508181035f830152611f1e81611ee5565b9050919050565b7f4e6f7420617070726f76656420746f206275726e207468697320746f6b656e005f82015250565b5f611f59601f836116ff565b9150611f6482611f25565b602082019050919050565b5f6020820190508181035f830152611f8681611f4d565b9050919050565b7f4552433732313a206f776e657220717565727920666f72206e6f6e65786973745f8201527f656e7420746f6b656e0000000000000000000000000000000000000000000000602082015250565b5f611fe76029836116ff565b9150611ff282611f8d565b604082019050919050565b5f6020820190508181035f83015261201481611fdb565b9050919050565b7f4552433732313a2062616c616e636520717565727920666f7220746865207a655f8201527f726f206164647265737300000000000000000000000000000000000000000000602082015250565b5f612075602a836116ff565b91506120808261201b565b604082019050919050565b5f6020820190508181035f8301526120a281612069565b9050919050565b7f4552433732313a20617070726f766520746f2063616c6c6572000000000000005f82015250565b5f6120dd6019836116ff565b91506120e8826120a9565b602082019050919050565b5f6020820190508181035f83015261210a816120d1565b9050919050565b7f4552433732313a2055524920717565727920666f72206e6f6e6578697374656e5f8201527f7420746f6b656e00000000000000000000000000000000000000000000000000602082015250565b5f61216b6027836116ff565b915061217682612111565b604082019050919050565b5f6020820190508181035f8301526121988161215f565b9050919050565b7f4e487b71000000000000000000000000000000000000000000000000000000005f52601160045260245ffd5b5f6121d682611785565b91507fffffffffffffffffffffffffffffffffffffffffffffffffffffffffffffffff82036122085761220761219f565b5b600182019050919050565b7f4552433732313a206f70657261746f7220717565727920666f72206e6f6e65785f8201527f697374656e7420746f6b656e0000000000000000000000000000000000000000602082015250565b5f61226d602c836116ff565b915061227882612213565b604082019050919050565b5f6020820190508181035f83015261229a81612261565b9050919050565b7f4552433732313a207472616e73666572206f6620746f6b656e207468617420695f8201527f73206e6f74206f776e0000000000000000000000000000000000000000000000602082015250565b5f6122fb6029836116ff565b9150612306826122a1565b604082019050919050565b5f6020820190508181035f830152612328816122ef565b9050919050565b7f4552433732313a207472616e7366657220746f20746865207a65726f206164645f8201527f7265737300000000000000000000000000000000000000000000000000000000602082015250565b5f6123896024836116ff565b91506123948261232f565b604082019050919050565b5f6020820190508181035f8301526123b68161237d565b9050919050565b5f6123c782611785565b91506123d283611785565b92508282039050818111156123ea576123e961219f565b5b92915050565b5f6123fa82611785565b915061240583611785565b925082820190508082111561241d5761241c61219f565b5b92915050565b7f4552433732313a207472616e7366657220746f206e6f6e2045524337323152655f8201527f63656976657220696d706c656d656e7465720000000000000000000000000000602082015250565b5f61247d6032836116ff565b915061248882612423565b604082019050919050565b5f6020820190508181035f8301526124aa81612471565b9050919050565b7f4552433732313a206d696e7420746f20746865207a65726f20616464726573735f82015250565b5f6124e56020836116ff565b91506124f0826124b1565b602082019050919050565b5f6020820190508181035f830152612512816124d9565b9050919050565b7f4552433732313a20746f6b656e20616c7265616479206d696e746564000000005f82015250565b5f61254d601c836116ff565b915061255882612519565b602082019050919050565b5f6020820190508181035f83015261257a81612541565b9050919050565b7f4552433732313a205552492073657420666f72206e6f6e6578697374656e74205f8201527f746f6b656e000000000000000000000000000000000000000000000000000000602082015250565b5f6125db6025836116ff565b91506125e682612581565b604082019050919050565b5f6020820190508181035f830152612608816125cf565b9050919050565b5f819050815f5260205f209050919050565b5f6020601f8301049050919050565b5f82821b905092915050565b5f6008830261266b7fffffffffffffffffffffffffffffffffffffffffffffffffffffffffffffffff82612630565b6126758683612630565b95508019841693508086168417925050509392505050565b5f819050919050565b5f6126b06126ab6126a684611785565b61268d565b611785565b9050919050565b5f819050919050565b6126c983612696565b6126dd6126d5826126b7565b84845461263c565b825550505050565b5f5f905090565b6126f46126e5565b6126ff8184846126c0565b505050565b5b81811015612722576127175f826126ec565b600181019050612705565b5050565b601f821115612767576127388161260f565b61274184612621565b81016020851015612750578190505b61276461275c85612621565b830182612704565b50505b505050565b5f82821c905092915050565b5f6127875f198460080261276c565b1980831691505092915050565b5f61279f8383612778565b9150826002028217905092915050565b6127b8826116f5565b67ffffffffffffffff8111156127d1576127d06119b6565b5b6127db8254611cbd565b6127e6828285612726565b5f60209050601f831160018114612817575f8415612805578287015190505b61280f8582612794565b865550612876565b601f1984166128258661260f565b5f5b8281101561284c57848901518255600182019150602085019450602081019050612827565b868310156128695784890151612865601f891682612778565b8355505b6001600288020188555050505b505050505050565b5f81519050919050565b5f82825260208201905092915050565b5f6128a28261287e565b6128ac8185612888565b93506128bc81856020860161170f565b6128c58161171d565b840191505092915050565b5f6080820190506128e35f830187611813565b6128f06020830186611813565b6128fd604083018561191e565b818103606083015261290f8184612898565b905095945050505050565b5f815190506129288161166d565b92915050565b5f602082840312156129435761294261163a565b5b5f6129508482850161291a565b9150509291505056fea2646970667358221220e494588ab834e86fadd221bf14643e69ab8d597aa75f96883ef93abd693d539b64736f6c634300081c0033608060405234801561000f575f5ffd5b506040516119f13803806119f183398181016040528101906100319190610526565b8383816003908161004291906107c9565b50806004908161005291906107c9565b5050508060055f6101000a81548173ffffffffffffffffffffffffffffffffffffffff021916908373ffffffffffffffffffffffffffffffffffffffff1602179055506100a581836100ae60201b60201c565b5050505061097d565b5f73ffffffffffffffffffffffffffffffffffffffff168273ffffffffffffffffffffffffffffffffffffffff160361011e575f6040517fec442f0500000000000000000000000000000000000000000000000000000000815260040161011591906108a7565b60405180910390fd5b61012f5f838361013360201b60201c565b5050565b5f73ffffffffffffffffffffffffffffffffffffffff168373ffffffffffffffffffffffffffffffffffffffff1603610183578060025f82825461017791906108ed565b92505081905550610251565b5f5f5f8573ffffffffffffffffffffffffffffffffffffffff1673ffffffffffffffffffffffffffffffffffffffff1681526020019081526020015f205490508181101561020c578381836040517fe450d38c0000000000000000000000000000000000000000000000000000000081526004016102039392919061092f565b60405180910390fd5b8181035f5f8673ffffffffffffffffffffffffffffffffffffffff1673ffffffffffffffffffffffffffffffffffffffff1681526020019081526020015f2081905550505b5f73ffffffffffffffffffffffffffffffffffffffff168273ffffffffffffffffffffffffffffffffffffffff1603610298578060025f82825403925050819055506102e2565b805f5f8473ffffffffffffffffffffffffffffffffffffffff1673ffffffffffffffffffffffffffffffffffffffff1681526020019081526020015f205f82825401925050819055505b8173ffffffffffffffffffffffffffffffffffffffff168373ffffffffffffffffffffffffffffffffffffffff167fddf252ad1be2c89b69c2b068fc378daa952ba7f163c4a11628f55a4df523b3ef8360405161033f9190610964565b60405180910390a3505050565b5f604051905090565b5f5ffd5b5f5ffd5b5f5ffd5b5f5ffd5b5f601f19601f8301169050919050565b7f4e487b71000000000000000000000000000000000000000000000000000000005f52604160045260245ffd5b6103ab82610365565b810181811067ffffffffffffffff821117156103ca576103c9610375565b5b80604052505050565b5f6103dc61034c565b90506103e882826103a2565b919050565b5f67ffffffffffffffff82111561040757610406610375565b5b61041082610365565b9050602081019050919050565b8281835e5f83830152505050565b5f61043d610438846103ed565b6103d3565b90508281526020810184848401111561045957610458610361565b5b61046484828561041d565b509392505050565b5f82601f8301126104805761047f61035d565b5b815161049084826020860161042b565b91505092915050565b5f819050919050565b6104ab81610499565b81146104b5575f5ffd5b50565b5f815190506104c6816104a2565b92915050565b5f73ffffffffffffffffffffffffffffffffffffffff82169050919050565b5f6104f5826104cc565b9050919050565b610505816104eb565b811461050f575f5ffd5b50565b5f81519050610520816104fc565b92915050565b5f5f5f5f6080858703121561053e5761053d610355565b5b5f85015167ffffffffffffffff81111561055b5761055a610359565b5b6105678782880161046c565b945050602085015167ffffffffffffffff81111561058857610587610359565b5b6105948782880161046c565b93505060406105a5878288016104b8565b92505060606105b687828801610512565b91505092959194509250565b5f81519050919050565b7f4e487b71000000000000000000000000000000000000000000000000000000005f52602260045260245ffd5b5f600282049050600182168061061057607f821691505b602082108103610623576106226105cc565b5b50919050565b5f819050815f5260205f209050919050565b5f6020601f8301049050919050565b5f82821b905092915050565b5f600883026106857fffffffffffffffffffffffffffffffffffffffffffffffffffffffffffffffff8261064a565b61068f868361064a565b95508019841693508086168417925050509392505050565b5f819050919050565b5f6106ca6106c56106c084610499565b6106a7565b610499565b9050919050565b5f819050919050565b6106e3836106b0565b6106f76106ef826106d1565b848454610656565b825550505050565b5f5f905090565b61070e6106ff565b6107198184846106da565b505050565b5b8181101561073c576107315f82610706565b60018101905061071f565b5050565b601f8211156107815761075281610629565b61075b8461063b565b8101602085101561076a578190505b61077e6107768561063b565b83018261071e565b50505b505050565b5f82821c905092915050565b5f6107a15f1984600802610786565b1980831691505092915050565b5f6107b98383610792565b9150826002028217905092915050565b6107d2826105c2565b67ffffffffffffffff8111156107eb576107ea610375565b5b6107f582546105f9565b610800828285610740565b5f60209050601f831160018114610831575f841561081f578287015190505b61082985826107ae565b865550610890565b601f19841661083f86610629565b5f5b8281101561086657848901518255600182019150602085019450602081019050610841565b86831015610883578489015161087f601f891682610792565b8355505b6001600288020188555050505b505050505050565b6108a1816104eb565b82525050565b5f6020820190506108ba5f830184610898565b92915050565b7f4e487b71000000000000000000000000000000000000000000000000000000005f52601160045260245ffd5b5f6108f782610499565b915061090283610499565b925082820190508082111561091a576109196108c0565b5b92915050565b61092981610499565b82525050565b5f6060820190506109425f830186610898565b61094f6020830185610920565b61095c6040830184610920565b949350505050565b5f6020820190506109775f830184610920565b92915050565b6110678061098a5f395ff3fe608060405234801561000f575f5ffd5b50600436106100a7575f3560e01c806370a082311161006f57806370a08231146101655780638da5cb5b1461019557806395d89b41146101b3578063a9059cbb146101d1578063dd62ed3e14610201578063f2fde38b14610231576100a7565b806306fdde03146100ab578063095ea7b3146100c957806318160ddd146100f957806323b872dd14610117578063313ce56714610147575b5f5ffd5b6100b361024d565b6040516100c09190610c10565b60405180910390f35b6100e360048036038101906100de9190610cc1565b6102dd565b6040516100f09190610d19565b60405180910390f35b6101016102ff565b60405161010e9190610d41565b60405180910390f35b610131600480360381019061012c9190610d5a565b610308565b60405161013e9190610d19565b60405180910390f35b61014f610336565b60405161015c9190610dc5565b60405180910390f35b61017f600480360381019061017a9190610dde565b61033e565b60405161018c9190610d41565b60405180910390f35b61019d610383565b6040516101aa9190610e18565b60405180910390f35b6101bb6103a8565b6040516101c89190610c10565b60405180910390f35b6101eb60048036038101906101e69190610cc1565b610438565b6040516101f89190610d19565b60405180910390f35b61021b60048036038101906102169190610e31565b61045a565b6040516102289190610d41565b60405180910390f35b61024b60048036038101906102469190610dde565b6104dc565b005b60606003805461025c90610e9c565b80601f016020809104026020016040519081016040528092919081815260200182805461028890610e9c565b80156102d35780601f106102aa576101008083540402835291602001916102d3565b820191905f5260205f20905b8154815290600101906020018083116102b657829003601f168201915b5050505050905090565b5f5f6102e761061c565b90506102f4818585610623565b600191505092915050565b5f600254905090565b5f5f61031261061c565b905061031f858285610635565b61032a8585856106c8565b60019150509392505050565b5f6012905090565b5f5f5f8373ffffffffffffffffffffffffffffffffffffffff1673ffffffffffffffffffffffffffffffffffffffff1681526020019081526020015f20549050919050565b60055f9054906101000a900473ffffffffffffffffffffffffffffffffffffffff1681565b6060600480546103b790610e9c565b80601f01602080910402602001604051908101604052809291908181526020018280546103e390610e9c565b801561042e5780601f106104055761010080835404028352916020019161042e565b820191905f5260205f20905b81548152906001019060200180831161041157829003601f168201915b5050505050905090565b5f5f61044261061c565b905061044f8185856106c8565b600191505092915050565b5f60015f8473ffffffffffffffffffffffffffffffffffffffff1673ffffffffffffffffffffffffffffffffffffffff1681526020019081526020015f205f8373ffffffffffffffffffffffffffffffffffffffff1673ffffffffffffffffffffffffffffffffffffffff1681526020019081526020015f2054905092915050565b60055f9054906101000a900473ffffffffffffffffffffffffffffffffffffffff1673ffffffffffffffffffffffffffffffffffffffff163373ffffffffffffffffffffffffffffffffffffffff161461056b576040517f08c379a000000000000000000000000000000000000000000000000000000000815260040161056290610f16565b60405180910390fd5b5f73ffffffffffffffffffffffffffffffffffffffff168173ffffffffffffffffffffffffffffffffffffffff16036105d9576040517f08c379a00000000000000000000000000000000000000000000000000000000081526004016105d090610f7e565b60405180910390fd5b8060055f6101000a81548173ffffffffffffffffffffffffffffffffffffffff021916908373ffffffffffffffffffffffffffffffffffffffff16021790555050565b5f33905090565b61063083838360016107b8565b505050565b5f610640848461045a565b90507fffffffffffffffffffffffffffffffffffffffffffffffffffffffffffffffff8110156106c257818110156106b3578281836040517ffb8f41b20000000000000000000000000000000000000000000000000000000081526004016106aa93929190610f9c565b60405180910390fd5b6106c184848484035f6107b8565b5b50505050565b5f73ffffffffffffffffffffffffffffffffffffffff168373ffffffffffffffffffffffffffffffffffffffff1603610738575f6040517f96c6fd1e00000000000000000000000000000000000000000000000000000000815260040161072f9190610e18565b60405180910390fd5b5f73ffffffffffffffffffffffffffffffffffffffff168273ffffffffffffffffffffffffffffffffffffffff16036107a8575f6040517fec442f0500000000000000000000000000000000000000000000000000000000815260040161079f9190610e18565b60405180910390fd5b6107b3838383610987565b505050565b5f73ffffffffffffffffffffffffffffffffffffffff168473ffffffffffffffffffffffffffffffffffffffff1603610828575f6040517fe602df0500000000000000000000000000000000000000000000000000000000815260040161081f9190610e18565b60405180910390fd5b5f73ffffffffffffffffffffffffffffffffffffffff168373ffffffffffffffffffffffffffffffffffffffff1603610898575f6040517f94280d6200000000000000000000000000000000000000000000000000000000815260040161088f9190610e18565b60405180910390fd5b8160015f8673ffffffffffffffffffffffffffffffffffffffff1673ffffffffffffffffffffffffffffffffffffffff1681526020019081526020015f205f8573ffffffffffffffffffffffffffffffffffffffff1673ffffffffffffffffffffffffffffffffffffffff1681526020019081526020015f20819055508015610981578273ffffffffffffffffffffffffffffffffffffffff168473ffffffffffffffffffffffffffffffffffffffff167f8c5be1e5ebec7d5bd14f71427d1e84f3dd0314c0f7b2291e5b200ac8c7c3b925846040516109789190610d41565b60405180910390a35b50505050565b5f73ffffffffffffffffffffffffffffffffffffffff168373ffffffffffffffffffffffffffffffffffffffff16036109d7578060025f8282546109cb9190610ffe565b92505081905550610aa5565b5f5f5f8573ffffffffffffffffffffffffffffffffffffffff1673ffffffffffffffffffffffffffffffffffffffff1681526020019081526020015f2054905081811015610a60578381836040517fe450d38c000000000000000000000000000000000000000000000000000000008152600401610a5793929190610f9c565b60405180910390fd5b8181035f5f8673ffffffffffffffffffffffffffffffffffffffff1673ffffffffffffffffffffffffffffffffffffffff1681526020019081526020015f2081905550505b5f73ffffffffffffffffffffffffffffffffffffffff168273ffffffffffffffffffffffffffffffffffffffff1603610aec578060025f8282540392505081905550610b36565b805f5f8473ffffffffffffffffffffffffffffffffffffffff1673ffffffffffffffffffffffffffffffffffffffff1681526020019081526020015f205f82825401925050819055505b8173ffffffffffffffffffffffffffffffffffffffff168373ffffffffffffffffffffffffffffffffffffffff167fddf252ad1be2c89b69c2b068fc378daa952ba7f163c4a11628f55a4df523b3ef83604051610b939190610d41565b60405180910390a3505050565b5f81519050919050565b5f82825260208201905092915050565b8281835e5f83830152505050565b5f601f19601f8301169050919050565b5f610be282610ba0565b610bec8185610baa565b9350610bfc818560208601610bba565b610c0581610bc8565b840191505092915050565b5f6020820190508181035f830152610c288184610bd8565b905092915050565b5f5ffd5b5f73ffffffffffffffffffffffffffffffffffffffff82169050919050565b5f610c5d82610c34565b9050919050565b610c6d81610c53565b8114610c77575f5ffd5b50565b5f81359050610c8881610c64565b92915050565b5f819050919050565b610ca081610c8e565b8114610caa575f5ffd5b50565b5f81359050610cbb81610c97565b92915050565b5f5f60408385031215610cd757610cd6610c30565b5b5f610ce485828601610c7a565b9250506020610cf585828601610cad565b9150509250929050565b5f8115159050919050565b610d1381610cff565b82525050565b5f602082019050610d2c5f830184610d0a565b92915050565b610d3b81610c8e565b82525050565b5f602082019050610d545f830184610d32565b92915050565b5f5f5f60608486031215610d7157610d70610c30565b5b5f610d7e86828701610c7a565b9350506020610d8f86828701610c7a565b9250506040610da086828701610cad565b9150509250925092565b5f60ff82169050919050565b610dbf81610daa565b82525050565b5f602082019050610dd85f830184610db6565b92915050565b5f60208284031215610df357610df2610c30565b5b5f610e0084828501610c7a565b91505092915050565b610e1281610c53565b82525050565b5f602082019050610e2b5f830184610e09565b92915050565b5f5f60408385031215610e4757610e46610c30565b5b5f610e5485828601610c7a565b9250506020610e6585828601610c7a565b9150509250929050565b7f4e487b71000000000000000000000000000000000000000000000000000000005f52602260045260245ffd5b5f6002820490506001821680610eb357607f821691505b602082108103610ec657610ec5610e6f565b5b50919050565b7f4e6f7420746865206f776e6572000000000000000000000000000000000000005f82015250565b5f610f00600d83610baa565b9150610f0b82610ecc565b602082019050919050565b5f6020820190508181035f830152610f2d81610ef4565b9050919050565b7f496e76616c6964206164647265737300000000000000000000000000000000005f82015250565b5f610f68600f83610baa565b9150610f7382610f34565b602082019050919050565b5f6020820190508181035f830152610f9581610f5c565b9050919050565b5f606082019050610faf5f830186610e09565b610fbc6020830185610d32565b610fc96040830184610d32565b949350505050565b7f4e487b71000000000000000000000000000000000000000000000000000000005f52601160045260245ffd5b5f61100882610c8e565b915061101383610c8e565b925082820190508082111561102b5761102a610fd1565b5b9291505056fea2646970667358221220d85c342e26672f822671c1c7a26f9993baad986a331320e500aa35229ba5fe7a64736f6c634300081c0033a26469706673582212207d1b525345e87f05fd57d19c872d09261247042398b21430115e8d96145ae4ad64736f6c634300081c0033","linkReferences":{}},"methodIdentifiers":{"createERC721(string,string)":"586fd0c5","createToken(string,string,uint256)":"5b060530","erc20TokenCount()":"bc48bc22","erc721TokenCount()":"f67ea2ac","getERC721TokensByUser(address)":"6fe520d0","getTokensByUser(address)":"80370075","userERC721Tokens(address,uint256)":"28e0d81d","userTokens(address,uint256)":"f9f411d8"},"id":21}